{
  "contractName": "Admin",
  "abi": [
    {
      "constant": false,
      "inputs": [
        {
          "internalType": "address",
          "name": "member",
          "type": "address"
        }
      ],
      "name": "addMember",
      "outputs": [],
      "payable": false,
      "stateMutability": "nonpayable",
      "type": "function"
    }
  ],
  "bytecode": "0x6080604052336000806101000a81548173ffffffffffffffffffffffffffffffffffffffff021916908373ffffffffffffffffffffffffffffffffffffffff1602179055506101d2806100536000396000f3fe608060405234801561001057600080fd5b506004361061002b5760003560e01c8063ca6d56dc14610030575b600080fd5b6100726004803603602081101561004657600080fd5b81019080803573ffffffffffffffffffffffffffffffffffffffff169060200190929190505050610074565b005b6000809054906101000a900473ffffffffffffffffffffffffffffffffffffffff1673ffffffffffffffffffffffffffffffffffffffff163373ffffffffffffffffffffffffffffffffffffffff1614610119576040517f08c379a000000000000000000000000000000000000000000000000000000000815260040180806020018281038252603c815260200180610162603c913960400191505060405180910390fd5b6000600160008373ffffffffffffffffffffffffffffffffffffffff1673ffffffffffffffffffffffffffffffffffffffff168152602001908152602001600020819055505056fe566f7573206e276176657a20706173206578c3a9637574657220636574746520616374696f6e2063617220696c2065737420726573747265696e742ea265627a7a72315820df570450df1020d97285e5103944e743810dac7a9accccd0380326c2d278158d64736f6c63430005100032",
  "source": "pragma solidity >= 0.4.22 < 0.9.0;\nimport \"./Owner.sol\";\n\ncontract Admin is Owner{\n\n\n}",
  "sourcePath": "/home/yanndev/Dev/Dapp/crypto-platform-backend/contracts/Admin.sol",
  "compiler": {
    "name": "solc",
    "version": "0.5.16+commit.9c3226ce.Emscripten.clang"
  },
  "schemaVersion": "3.4.2",
  "updatedAt": "2021-09-19T00:48:25.551Z",
  "devdoc": {
    "methods": {}
  },
  "userdoc": {
    "methods": {}
  }
}