{
  "contractName": "Owner",
  "abi": [
    {
      "inputs": [],
      "payable": false,
      "stateMutability": "nonpayable",
      "type": "constructor"
    },
    {
      "constant": false,
      "inputs": [
        {
          "internalType": "address",
          "name": "member",
          "type": "address"
        }
      ],
      "name": "addMember",
      "outputs": [],
      "payable": false,
      "stateMutability": "nonpayable",
      "type": "function"
    }
  ],
  "bytecode": "0x608060405234801561001057600080fd5b50336000806101000a81548173ffffffffffffffffffffffffffffffffffffffff021916908373ffffffffffffffffffffffffffffffffffffffff1602179055506101d2806100606000396000f3fe608060405234801561001057600080fd5b506004361061002b5760003560e01c8063ca6d56dc14610030575b600080fd5b6100726004803603602081101561004657600080fd5b81019080803573ffffffffffffffffffffffffffffffffffffffff169060200190929190505050610074565b005b6000809054906101000a900473ffffffffffffffffffffffffffffffffffffffff1673ffffffffffffffffffffffffffffffffffffffff163373ffffffffffffffffffffffffffffffffffffffff1614610119576040517f08c379a000000000000000000000000000000000000000000000000000000000815260040180806020018281038252603c815260200180610162603c913960400191505060405180910390fd5b6000600160008373ffffffffffffffffffffffffffffffffffffffff1673ffffffffffffffffffffffffffffffffffffffff168152602001908152602001600020819055505056fe566f7573206e276176657a20706173206578c3a9637574657220636574746520616374696f6e2063617220696c2065737420726573747265696e742ea265627a7a72315820c5f3eed133d8f48ed704103428d0ee431dd0924e088e0b5951d018d99757d06b64736f6c63430005100032",
  "source": "pragma solidity >= 0.4.22 < 0.9.0;\n\ncontract Owner{\n    address owner;\n    mapping(address => uint) members;\n\n    constructor() public{\n        owner = msg.sender;\n\n    }\n\n    modifier isOwner(){\n        require(msg.sender == owner, \"Vous n'avez pas exécuter cette action car il est restreint.\");\n        _;\n    }\n\n    /*modifier isMember(){\n        \n    }*/\n\n\n    function addMember(address member) public isOwner{\n        members[member] = 0;\n    }\n\n\n}",
  "sourcePath": "/home/yanndev/Dev/Dapp/crypto-platform-backend/contracts/Owner.sol",
  "compiler": {
    "name": "solc",
    "version": "0.5.16+commit.9c3226ce.Emscripten.clang"
  },
  "schemaVersion": "3.4.2",
  "updatedAt": "2021-09-19T00:48:25.568Z",
  "devdoc": {
    "methods": {}
  },
  "userdoc": {
    "methods": {}
  }
}