{
  "contractName": "Wallet",
  "abi": [
    {
      "payable": true,
      "stateMutability": "payable",
      "type": "fallback"
    },
    {
      "constant": false,
      "inputs": [
        {
          "internalType": "address",
          "name": "member",
          "type": "address"
        }
      ],
      "name": "addMember",
      "outputs": [],
      "payable": false,
      "stateMutability": "nonpayable",
      "type": "function"
    },
    {
      "constant": true,
      "inputs": [
        {
          "internalType": "address",
          "name": "me",
          "type": "address"
        }
      ],
      "name": "isMe",
      "outputs": [
        {
          "internalType": "bool",
          "name": "",
          "type": "bool"
        }
      ],
      "payable": false,
      "stateMutability": "view",
      "type": "function"
    },
    {
      "constant": false,
      "inputs": [
        {
          "internalType": "address payable",
          "name": "__to",
          "type": "address"
        },
        {
          "internalType": "uint256",
          "name": "amount",
          "type": "uint256"
        }
      ],
      "name": "withdraw",
      "outputs": [],
      "payable": false,
      "stateMutability": "nonpayable",
      "type": "function"
    },
    {
      "constant": true,
      "inputs": [],
      "name": "getBalance",
      "outputs": [
        {
          "internalType": "uint256",
          "name": "",
          "type": "uint256"
        }
      ],
      "payable": false,
      "stateMutability": "view",
      "type": "function"
    }
  ],
  "bytecode": "0x6080604052336000806101000a81548173ffffffffffffffffffffffffffffffffffffffff021916908373ffffffffffffffffffffffffffffffffffffffff1602179055506106ec806100536000396000f3fe60806040526004361061003f5760003560e01c806312065fe0146101b0578063abcd41a8146101db578063ca6d56dc14610244578063f3fef3a314610295575b61004761063d565b604051806040016040528034815260200142815250905034600260003373ffffffffffffffffffffffffffffffffffffffff1673ffffffffffffffffffffffffffffffffffffffff1681526020019081526020016000206000016000828254019250508190555080600260003373ffffffffffffffffffffffffffffffffffffffff1673ffffffffffffffffffffffffffffffffffffffff1681526020019081526020016000206002016000600260003373ffffffffffffffffffffffffffffffffffffffff1673ffffffffffffffffffffffffffffffffffffffff1681526020019081526020016000206001015481526020019081526020016000206000820151816000015560208201518160010155905050600260003373ffffffffffffffffffffffffffffffffffffffff1673ffffffffffffffffffffffffffffffffffffffff1681526020019081526020016000206001016000815480929190600101919050555050005b3480156101bc57600080fd5b506101c56102f0565b6040518082815260200191505060405180910390f35b3480156101e757600080fd5b5061022a600480360360208110156101fe57600080fd5b81019080803573ffffffffffffffffffffffffffffffffffffffff16906020019092919050505061039d565b604051808215151515815260200191505060405180910390f35b34801561025057600080fd5b506102936004803603602081101561026757600080fd5b81019080803573ffffffffffffffffffffffffffffffffffffffff1690602001909291905050506103d5565b005b3480156102a157600080fd5b506102ee600480360360408110156102b857600080fd5b81019080803573ffffffffffffffffffffffffffffffffffffffff169060200190929190803590602001909291905050506104c2565b005b60008060009054906101000a900473ffffffffffffffffffffffffffffffffffffffff1673ffffffffffffffffffffffffffffffffffffffff163373ffffffffffffffffffffffffffffffffffffffff1614610397576040517f08c379a000000000000000000000000000000000000000000000000000000000815260040180806020018281038252603c815260200180610658603c913960400191505060405180910390fd5b47905090565b60008173ffffffffffffffffffffffffffffffffffffffff163373ffffffffffffffffffffffffffffffffffffffff16149050919050565b6000809054906101000a900473ffffffffffffffffffffffffffffffffffffffff1673ffffffffffffffffffffffffffffffffffffffff163373ffffffffffffffffffffffffffffffffffffffff161461047a576040517f08c379a000000000000000000000000000000000000000000000000000000000815260040180806020018281038252603c815260200180610658603c913960400191505060405180910390fd5b6000600160008373ffffffffffffffffffffffffffffffffffffffff1673ffffffffffffffffffffffffffffffffffffffff1681526020019081526020016000208190555050565b6104cb8261039d565b61053d576040517f08c379a00000000000000000000000000000000000000000000000000000000081526004018080602001828103825260188152602001807f596f752063616e277420646f207468697320616374696f6e000000000000000081525060200191505060405180910390fd5b6000600260003373ffffffffffffffffffffffffffffffffffffffff1673ffffffffffffffffffffffffffffffffffffffff168152602001908152602001600020600001549050600081831115610595576000610598565b60015b9050806105f0576040517f08c379a00000000000000000000000000000000000000000000000000000000081526004018080602001828103825260248152602001806106946024913960400191505060405180910390fd5b8373ffffffffffffffffffffffffffffffffffffffff166108fc849081150290604051600060405180830381858888f19350505050158015610636573d6000803e3d6000fd5b5050505050565b60405180604001604052806000815260200160008152509056fe566f7573206e276176657a20706173206578c3a9637574657220636574746520616374696f6e2063617220696c2065737420726573747265696e742e596f752063616e2774207769746864726177206d6f7265207468616e20796f7520676574a265627a7a723158207267957ff6f36d0d86d248ac090e934cc668896c8ca527634f7c1ee6690e7d4464736f6c63430005100032",
  "source": "pragma solidity >=0.5.11 <0.9.0;\n\nimport \"./Owner.sol\";\n\ncontract Wallet is Owner{\n\n    struct Payment{\n        uint amount;\n        uint timestamp;\n    }\n\n    struct Balance{\n        uint totalBalance;\n        uint numPayments;\n        mapping(uint => Payment) payments;\n    }\n\n    mapping(address => Balance) wallets;\n\n    function isMe(address me) public view returns(bool){\n        return msg.sender == me;\n    }\n\n    function withdraw(address payable __to, uint amount) public{\n        require(isMe(__to), \"You can't do this action\");\n        uint user_balance = wallets[msg.sender].totalBalance;\n        bool can_start_withdraw = amount <= user_balance ? true : false;\n        require(can_start_withdraw, \"You can't withdraw more than you get\");\n        __to.transfer(amount);\n    }\n\n    function() external payable{\n        Payment memory payment = Payment(msg.value, block.timestamp);\n        wallets[msg.sender].totalBalance += msg.value;\n        wallets[msg.sender].payments[wallets[msg.sender].numPayments] = payment;\n        wallets[msg.sender].numPayments++;\n    }\n\n    function getBalance() public isOwner view returns(uint){\n        return address(this).balance;\n    }\n}",
  "sourcePath": "/home/yanndev/Dev/Dapp/crypto-platform-backend/contracts/Wallet.sol",
  "compiler": {
    "name": "solc",
    "version": "0.5.16+commit.9c3226ce.Emscripten.clang"
  },
  "schemaVersion": "3.4.2",
  "updatedAt": "2021-09-20T04:35:13.784Z",
  "networkType": "ethereum",
  "devdoc": {
    "methods": {}
  },
  "userdoc": {
    "methods": {}
  }
}